:020000040000FA
:10800000005F00203D83000075830000B187000001
:108010007183000071830000718300007183000090
:108020000000000000000000000000007D83000050
:10803000718300000000000081830000AD87000014
:10804000898300008D8300009183000095830000E8
:10805000998300009D830000A1830000A583000098
:10806000A9830000AD830000B1830000B583000048
:10807000B9830000BD830000C1830000C5830000F8
:10808000C9830000CD830000D1830000D5830000A8
:10809000D9830000DD830000E1830000E583000058
:1080A000E9830000ED830000F1830000F583000008
:1080B000F9830000FD8300000184000005840000B6
:1080C000098400000D840000118400001584000064
:1080D000198400001D840000218400002584000014
:1080E000298400002D8400003184000035840000C4
:1080F000398400003D840000418400004584000074
:10810000498400004D840000518400005584000023
:10811000598400005D8400006184000065840000D3
:10812000698400006D840000718400007584000083
:10813000798400007D840000818400008584000033
:10814000898400008D8400009184000095840000E3
:10815000998400009D840000A1840000A584000093
:10816000A9840000AD840000B1840000B584000043
:10817000B9840000BD840000C1840000C5840000F3
:1081800000000000000000000000000000000000EF
:1081900000000000000000000000000000000000DF
:1081A00000000000000000000000000000000000CF
:1081B00000000000000000000000000000000000BF
:1081C00000000000000000000000000000000000AF
:1081D000000000000000000000000000000000009F
:1081E000000000000000000000000000000000008F
:1081F000000000000000000000000000000000007F
:10820000DFF80CD004F0AEF8004800471D860000EF
:10821000005F002080B582B04EF68851CEF200019A
:10822000086840F00F0008604EF68C51CEF2000155
:10823000086840F603421043086048F20000C0F2AC
:1082400000004EF60851CEF20001086041F624010C
:10825000C4F20901086840F480700860086820F0E2
:10826000010008604FF0807000680130C8B1FFE77E
:108270004FF0807000680021C5F66311884255D127
:10828000FFE74020C0F200100068013000284DD107
:10829000FFE74420C0F2001000680130002845D1FB
:1082A000FFE741F60051C4F209014FF4C020086015
:1082B0000F20C0F2020008600F22C0F201020A6023
:1082C00041F60452C4F209024FF42413136008600B
:1082D0004FF4201010600F2008604EF22001C4F20D
:1082E00008014FF4EE40086000208DF80700FFE71A
:1082F0009DF80700012810D8FFE79DF807204EF2EF
:108300004001C4F20801002041F82200FFE79DF877
:10831000070001308DF80700EAE741F60051C4F28A
:1083200009010F20C0F202000860FFE700F002F828
:1083300002B080BD704700BF7047000072B60748AA
:10834000074901600A6882F30888064880F30A88B2
:108350000548804762B605480047000008ED00E088
:1083600000800000005700201582000001820000FC
:10837000FFF7FEBF544800475448004754480047A1
:108380005448004754480047544800475448004761
:108390005448004754480047544800475448004751
:1083A0005448004754480047544800475448004741
:1083B0005448004754480047544800475448004731
:1083C0005448004754480047544800475448004721
:1083D0005448004754480047544800475448004711
:1083E0005448004754480047544800475448004701
:1083F00054480047544800475448004754480047F1
:1084000054480047544800475448004754480047E0
:1084100054480047544800475448004754480047D0
:1084200054480047544800475448004754480047C0
:1084300054480047544800475448004754480047B0
:1084400054480047544800475448004754480047A0
:108450005448004754480047544800475448004790
:108460005448004754480047544800475448004780
:108470005448004754480047544800475448004770
:108480005448004754480047544800475448004760
:108490005448004754480047544800475448004750
:1084A0005448004754480047544800475448004740
:1084B0005448004754480047544800475448004730
:1084C000544800475448004775830000B1870000B6
:1084D0007D83000081830000AD8700007183000070
:1084E00071830000718300007183000071830000BC
:1084F00071830000718300007183000071830000AC
:10850000718300007183000071830000718300009B
:10851000718300007183000071830000718300008B
:10852000718300007183000071830000718300007B
:10853000718300007183000071830000718300006B
:10854000718300007183000071830000718300005B
:108550007183000071830000A1BA0000C5BA000059
:10856000E5BA000071830000718300007183000090
:10857000718300007183000071830000718300002B
:10858000718300007183000071830000718300001B
:10859000718300007183000071830000718300000B
:1085A00071830000718300007183000071830000FB
:1085B00071830000718300007183000071830000EB
:1085C00071830000718300007183000071830000DB
:1085D00071830000718300007183000071830000CB
:1085E00071830000718300007183000071830000BB
:1085F00071830000718300007183000071830000AB
:10860000718300007183000071830000718300009A
:1086100071830000718300007183000080B58AB00F
:1086200000200190099000F035F803A8029001F0B5
:108630006DFF01984FF4E131039101218DF81C1079
:108640008DF81D1000F058FF029902464FF200000D
:10865000C4F2090001F0B2FC4CF67E50C0F20000FA
:1086600048F21D61C0F2000103F0FEFEFFE745F293
:108670000000C4F210004FF4805100F08FF800F0B9
:10868000C5FC014648F2A060C0F2010001F062FBA7
:10869000EDE700BF80B588B01D20009000F0C6F85F
:1086A0001E20019000F0C2F81F20029000F0BEF8DA
:1086B0004FF4801000F0BAF80520C0F2100000F06E
:1086C000B5F80620C0F2100000F0B0F80720C0F2A4
:1086D000100000F0ABF80820C0F2100000F0A6F87F
:1086E000009800F0E7F8019800F0E4F8029800F034
:1086F000E1F84FF4807000F0DDF840F2051000F072
:10870000D9F84FF4837000F0D5F840F2071000F06C
:10871000D1F84FF4847000F0CDF8132000F0CAF8BF
:108720004FF20000C4F20B000C210391002200F074
:10873000CBF8039901200690ADF81C0045F200002B
:10874000C4F2100007AA01F041FB4CF20000C4F291
:108750000B00049002220592114600F0B5F804982F
:10876000059A032100F0B0F806994CF28802C4F291
:108770000B02106840F4805010604CF28C02C4F27E
:108780000B02106840F480501060E42000F074F98F
:108790004FF4600000F0B0F808B080BD82B00190E6
:1087A000009100980199C86402B07047704700BFFB
:1087B00000F000F8BFF34F8F4EF60C51CEF20001DF
:1087C000086800F4E0600422C0F2FA521043086026
:1087D000BFF34F8FFFE700BFFDE700BF83B00290FC
:1087E0000191009280B582B0019000919DF8041033
:1087F0004FF20000C4F2090000F00EF8FFE74FF25C
:108800001400C4F2090000680002002801D4FFE748
:10881000F5E7019802B080BD82B001908DF8031099
:108820009DF803000199C86102B0704784B00390BD
:10883000BDF80E000290BDF80C000190029841F2C4
:108840004401C4F20901084400900398013008B9BA
:10885000FFE72DE041F2FC31C4F20901086820F085
:10886000010008600298FA2813D1FFE7019901205E
:1088700000FA01F241F63811C4F209010868104308
:10888000086041F24401C4F209014FF080700860B1
:1088900005E001990120884000990860FFE741F256
:1088A000FC31C4F20901086840F001000860FFE7EC
:1088B00004B0704780B582B0ADF80600BDF8060080
:1088C00003F03CFA02B080BD83B0029001918DF8B4
:1088D00003200298019900EB8100D0F880009DF8F8
:1088E000031061F30B200299019A01EB8201C1F898
:1088F000800003B07047000080B584B00390BDF8DD
:108900000E000290BDF80C0001900398013030B1C8
:10891000FFE7BDF80800019900F004F8FFE704B094
:1089200080BD00BF84B0ADF80E000291BDF80E000E
:1089300041F20001C4F2090108440190BDF80E00A3
:10894000B0F5007F01DCFFE70AE04CF6D750C0F23B
:1089500000004CF6A451C0F200016C22FFF73EFF6C
:10896000BDF80E00B0F5007F1BD1FFE74FF21401F8
:10897000C4F208010868029A62F31A600860FFE70F
:108980004FF21000C4F20800006800F0E060029AA4
:108990004FF0E06101EA0261884201D0FFE7EFE7B2
:1089A0000FE041F2FC31C4F20901086820F0010037
:1089B00008600298019A1060086840F001000860A1
:1089C000FFE704B0704700BF80B586B00490BDF8E3
:1089D000120003900020029001900498013020B909
:1089E000FFE74FF0FF3005900CE0BDF80C0000F001
:1089F0000DF802900399029840EA01400190019815
:108A00000590FFE7059806B080BD00BF84B0ADF8C3
:108A10000E00BDF80E0041F20001C4F20901084445
:108A2000029000200190BDF80E00B0F5007F01DC3F
:108A3000FFE70AE04CF6D750C0F200004CF6A45114
:108A4000C0F200018622FFF7C9FEBDF80E00B0F5A6
:108A5000007F09D1FFE74FF21400C4F2080000685C
:108A6000C0F30260019003E0029800680190FFE704
:108A7000019804B0704700BF84B0ADF80E000291B9
:108A8000BDF80E0041F20001C4F209010844019052
:108A9000BDF80E00B0F5607F01DCFFE70AE04CF6A0
:108AA000F150C0F200004CF6A451C0F2000198222F
:108AB000FFF794FE41F2FC31C4F20901086820F08E
:108AC0000100086001994FF0C0400860029830B979
:108AD000FFE70199086840F08040086004E00298D0
:108AE000013801990860FFE741F2FC31C4F2090145
:108AF000086840F00100086004B0704784B0ADF829
:108B00000A00BDF80A0041F20001C4F2090108445C
:108B10000190BDF80A00B0F5607F01DCFFE70AE0D4
:108B20004CF6F150C0F200004CF6A451C0F2000126
:108B3000B122FFF753FE019800684000002803D5DA
:108B4000FFE70020039005E001980068C0B2013003
:108B50000390FFE7039804B0704700BF82B0ADF800
:108B60000600BDF8060041F20001C4F20901084404
:108B70000090BDF80600B0F5607F01DCFFE70AE079
:108B80004CF6F150C0F200004CF6A451C0F20001C6
:108B9000C122FFF723FE41F2FC31C4F2090108684B
:108BA00020F001000860009A106840F080401060DA
:108BB000086840F00100086002B0704785B003907B
:108BC00000208DF80B000398019046F60041C0F29A
:108BD000DC21884218D0FFE7019849F20001C0F279
:108BE000D031884214D0FFE701984DF60001C0F261
:108BF000B851884210D0FFE701984BF20001C0F64F
:108C0000713188420CD00FE001208DF80B000FE08D
:108C100003208DF80B000BE005208DF80B0007E01A
:108C200007208DF80B0003E00F208DF80B00FFE705
:108C30009DF80B000F2803D1FFE70120049030E0DE
:108C40009DF80B100E2000EA41004FF20831C4F2EB
:108C5000080108604FF20031C4F208010091086871
:108C600020F400000860086840F010000860086800
:108C700040F020000860086840F0010008600868C3
:108C800040F400000860FFE74FF20030C4F2080033
:108C90000068C001002801D4FFE7F5E70020049038
:108CA000FFE7049805B070474FF20021C4F20801B5
:108CB000086820F400000860086840F020000860A0
:108CC000086840F400000860FFE74FF20020C4F29B
:108CD00008000068C001002801D4FFE7F5E7002084
:108CE000704700BF81B08DF8030043F20021C4F249
:108CF0000901086840F00100086043F21821C4F23D
:108D00000901086840F0010008609DF8030000F0C8
:108D1000030243F22021C4F20901086810430860ED
:108D2000002001B0704700BF83B0019000208DF893
:108D30000300019841F20021C0F27A0188420CD36D
:108D4000FFE7019842F2FF31C0F2F401884204D8F3
:108D5000FFE700208DF8030041E0019842F2004156
:108D6000C0F2F40188420CD3FFE7019847F63F01B7
:108D7000C0F27D11884204D8FFE701208DF803007E
:108D80002CE0019847F64001C0F27D1188420CD3D7
:108D9000FFE7019845F6FF11C0F26221884204D82E
:108DA000FFE702208DF8030017E0019845F6002147
:108DB000C0F2622188420CD3FFE701984FF2800194
:108DC000C0F2FA21884204D8FFE703208DF803009F
:108DD00002E0042002903BE0FFE7FFE7FFE74FF2ED
:108DE0000010C4F2080000680002002803D5FFE765
:108DF000022002902CE04FF20011C4F208014FF063
:108E0000806008609DF80320042062F305104FF293
:108E10000812C4F208021060086820F4000008601C
:108E2000086840F001100860FFE74FF20010C4F23C
:108E300008000068C001002801D4FFE7F5E70198A9
:108E400040F20001C2F20001086000200290FFE73A
:108E5000029803B0704700BF82B0009000984FF2B4
:108E60008101C0F2FA21884203D3FFE70420019078
:108E700036E04FF20010C4F208000068000200283B
:108E800003D5FFE7022001902AE04FF20011C4F25F
:108E900008014FF0806008604FF20812C4F2080227
:108EA000106820F004001060086820F400000860DA
:108EB000086840F001100860FFE74FF20010C4F2AC
:108EC00008000068C001002801D4FFE7F5E700981A
:108ED00040F20001C2F20001086000200190FFE7AB
:108EE000019802B0704700BF80B584B08DF80F00C4
:108EF000002002909DF80F00014601910D284ED8E8
:108F00000199DFE801F0070B0F13171B1F2D3135F7
:108F1000393D424700F04AF8029043E000F076F80D
:108F200002903FE000F072F802903BE000F06EF833
:108F3000029037E000F078F8029033E000F08CF80F
:108F400002902FE000F088F841F25411C4F20901B8
:108F5000096801F00F010131B0FBF1F0029021E04E
:108F600000F0D8F802901DE000F0F8F8029019E047
:108F700000F002F9029015E000F004F9029011E00F
:108F8000002000F00BF902900CE0012000F006F93F
:108F9000029007E000F03AF88008029002E000201A
:108FA0000290FFE7029804B080BD00BF80B582B098
:108FB000002001904FF21000C4F20800006800F099
:108FC000E0614FF0FF3000EB116001460091032893
:108FD00015D80099DFE801F002060A0E00F024F827
:108FE00001900FE000F0BAF801900BE000F034F8C7
:108FF000019007E0012000F0D1F8019002E000208C
:109000000190FFE7019802B080BD00BF80B5FFF777
:10901000CDFF41F28031C4F209010968C9B20131C2
:10902000B0FBF1F080BD00BF81B04FF20010C4F280
:1090300008000068C001002807D5FFE740F20000E3
:10904000C2F200000068009002E000200090FFE7FC
:10905000009801B0704700BF82B04FF20030C4F2F8
:1090600008000068C00748B1FFE74FF20030C4F2C3
:109070000800006810F0050F03D1FFE70020019001
:10908000FFE74FF20830C4F208000068C0F3420066
:1090900001460091072836D80099DFE801F0040A5C
:1090A00010161C22282E45F20010C0F22520019037
:1090B0002CE046F60040C0F2DC20019026E046F6A7
:1090C0000040C0F2DC20019020E049F20000C0F234
:1090D000D03001901AE04AF20020C0F24A400190DC
:1090E00014E04DF60000C0F2B85001900EE044F2DA
:1090F0000040C0F69500019008E04BF20000C0F679
:109100007130019002E000200190FFE7019802B069
:10911000704700BF81B04FF20030C4F20800016810
:109120000120C906002900900CD4FFE74FF200305F
:10913000C4F20800006800F00401012080EA9100F8
:109140000090FFE7009800F0010000281CBF46F6E1
:109150000040C0F2DC2001B0704700BF4FF2002099
:10916000C4F20800006800F0200000281CBF41F68F
:109170000030C0F2B700704744F24020C0F20F0048
:10918000704700BF43F20020C4F20900006800F0FD
:109190000100002818BF4FF47A50704782B08DF854
:1091A000070043F20020C4F2090001680020C9074B
:1091B000009069B1FFE743F22020C4F20900006883
:1091C0009DF8071000EA4100C0F340000090FFE75F
:1091D000009800F00100002818BF4FF47A5002B048
:1091E000704700BF80B586B00020049041F2A00017
:1091F000C4F209000068039041F2A400C4F209001F
:1092000000680290029800F037F818B1FFE70020DC
:1092100005902EE00398019005281FD80199DFE8FA
:1092200001F0031D07151D19FFF798FF049018E0C2
:10923000FFF712FF41F25411C4F20901096801F06D
:109240000F010131B0FBF1F004900AE0FFF7ECFEF2
:10925000049006E0FFF790FF049002E000200490E5
:10926000FFE704989DF808100131B0FBF1F005907C
:10927000FFE7059806B080BD82B000909DF803001E
:109280004006002804D5FFE701208DF8070003E021
:1092900000208DF80700FFE79DF8070002B0704737
:1092A00080B58AB0089000200790089838B9FFE789
:1092B00041F2A800C4F209000068049014E0089884
:1092C000012807D1FFE741F2B000C4F209000068AD
:1092D000039006E041F2B800C4F209000068039070
:1092E000FFE703980490FFE704980690089838B9C0
:1092F000FFE741F2AC00C4F209000068029014E0FC
:109300000898012807D1FFE741F2B400C4F2090030
:109310000068019006E041F2BC00C4F20900006858
:109320000190FFE701980290FFE7029805900598E9
:10933000FFF7A2FF18B1FFE70020099029E0069887
:10934000009005281AD80099DFE801F00307180BF0
:109350000F14FFF703FF079013E0FFF77DFE079060
:109360000FE0FFF761FE07900BE00120FFF716FF0B
:10937000079006E0FFF700FF079002E0002007904B
:10938000FFE707989DF814100131B0FBF1F0099048
:10939000FFE709980AB080BD80B586B00020049030
:1093A00041F2C800C4F209000068039041F2CC0009
:1093B000C4F20900006802900298FFF75DFF18B13F
:1093C000FFE7002005902EE00398019005281FD8A4
:1093D0000199DFE801F0031D07151D19FFF7BEFE17
:1093E000049018E0FFF738FE41F25411C4F209016D
:1093F000096801F00F010131B0FBF1F004900AE0BF
:10940000FFF712FE049006E0FFF7B6FE049002E0BC
:1094100000200490FFE704989DF808100131B0FB8C
:10942000F1F00590FFE7059806B080BD80B588B0E3
:10943000069000200590069838B9FFE741F2D00069
:10944000C4F209000068029006E041F2D800C4F2BC
:10945000090000680290FFE702980490069838B966
:10946000FFE741F2D400C4F209000068019006E071
:1094700041F2DC00C4F2090000680190FFE70198A6
:1094800003900398FFF7F8FE18B1FFE7002007905C
:109490002EE00498009005281FD80099DFE801F01D
:1094A000031D07151D19FFF759FE059018E0FFF77A
:1094B000D3FD41F25411C4F20901096801F00F0112
:1094C0000131B0FBF1F005900AE0FFF7ADFD05902A
:1094D00006E0FFF751FE059002E000200590FFE74F
:1094E00005989DF80C100131B0FBF1F00790FFE7F3
:1094F000079808B080BD00BF80B58AB008900020F2
:109500000790089838B9FFE741F2E000C4F209007B
:109510000068049014E00898012807D1FFE741F2A1
:10952000E800C4F209000068039006E041F2F00090
:10953000C4F2090000680390FFE703980490FFE776
:1095400004980690089838B9FFE741F2E400C4F2A5
:1095500009000068029014E00898012807D1FFE78D
:1095600041F2EC00C4F209000068019006E041F20B
:10957000F400C4F2090000680190FFE7019802902E
:10958000FFE7029805900598FFF776FE18B1FFE710
:109590000020099033E006980090052824D800990F
:1095A000DFE801F003220715191EFFF7D7FD07902A
:1095B0001DE0FFF751FD41F25411C4F209010968A1
:1095C00001F00F010131B0FBF1F007900FE0FFF760
:1095D0002BFD07900BE00120FFF7E0FD079006E070
:1095E000FFF7CAFD079002E000200790FFE7079809
:1095F0009DF814100131B0FBF1F00990FFE70998D4
:109600000AB080BD80B586B00020049041F2001001
:10961000C4F209000068039041F20410C4F209008A
:10962000006802900298FFF727FE18B1FFE70020BC
:1096300005902EE00398019005281FD80199DFE8D6
:1096400001F0031D07151D19FFF788FD049018E0B0
:10965000FFF702FD41F25411C4F20901096801F05B
:109660000F010131B0FBF1F004900AE0FFF7DCFCE0
:10967000049006E0FFF780FD049002E000200490D3
:10968000FFE704989DF808100131B0FBF1F0059058
:10969000FFE7059806B080BD80B584B00020039038
:1096A00041F20810C4F2090000680290029801908B
:1096B00020B1FFE70198022805D008E00120FFF75C
:1096C0006DFD039006E0FFF757FD039002E00020D8
:1096D0000390FFE7039804B080BD00BF80B586B05B
:1096E0000020049041F21010C4F2090000680390B9
:1096F00041F21410C4F20900006802900298FFF7CA
:10970000BBFD18B1FFE70020059024E0039801900D
:10971000052815D80199DFE801F00307130B130F93
:10972000FFF71CFD04900EE0FFF796FC04900AE0A2
:10973000FFF77AFC049006E0FFF71EFD049002E0BC
:1097400000200490FFE704989DF808100131B0FB59
:10975000F1F00590FFE7059806B080BD80B588B0B0
:10976000069000200590069838B9FFE741F22010D6
:10977000C4F209000068029006E041F23010C4F221
:10978000090000680290FFE702980490069838B933
:10979000FFE741F21C10C4F209000068019006E0E6
:1097A00041F22C10C4F2090000680190FFE7019813
:1097B00003900398FFF760FD18B1FFE700200790C2
:1097C0002EE00498009005281FD80099DFE801F0EA
:1097D000031D07151D19FFF7C1FC059018E0FFF7E1
:1097E0003BFC41F25411C4F20901096801F00F0178
:1097F0000131B0FBF1F005900AE0FFF715FC059090
:1098000006E0FFF7B9FC059002E000200590FFE7B5
:1098100005989DF80C100131B0FBF1F00790FFE7BF
:10982000079808B080BD00BF80B588B006900020C2
:109830000590069838B9FFE741F22010C4F20900FC
:109840000068029006E041F23010C4F2090000689E
:109850000290FFE702980490069838B9FFE741F2BA
:109860002410C4F209000068019006E041F23410AF
:10987000C4F2090000680190FFE701980390039883
:10988000FFF7FAFC18B1FFE7002007902EE00498DC
:10989000009005281FD80099DFE801F0031D071587
:1098A0001D19FFF75BFC059018E0FFF7D5FB41F2AF
:1098B0005411C4F20901096801F00F010131B0FB34
:1098C000F1F005900AE0FFF7AFFB059006E0FFF727
:1098D00053FC059002E000200590FFE705989DF8F5
:1098E0000C100131B0FBF1F00790FFE7079808B0CA
:1098F00080BD00BF80B586B00020049041F23810D2
:10990000C4F209000068039041F23C10C4F209005F
:10991000006802900298FFF7AFFC18B1FFE7002043
:10992000059023E00398019040B1FFE701980128DA
:1099300008D0FFE70198022808D00CE0FFF766FB8B
:1099400004900BE0FFF718FC049007E00120FFF7FC
:1099500025FC049002E000200490FFE704989DF8A5
:1099600008100131B0FBF1F00590FFE7059806B053
:1099700080BD00BF80B586B00020049041F2401049
:10998000C4F209000068039041F24410C4F20900D7
:10999000006802900298FFF76FFC18B1FFE7002003
:1099A000059035E003980190062826D80199DFE854
:1099B00001F00408161A24241F00FFF7CFFB0490BF
:1099C0001EE0FFF749FB41F25411C4F20901096896
:1099D00001F00F010131B0FBF1F0049010E0FFF74E
:1099E00023FB04900CE00120FFF7D8FB049007E074
:1099F000FFF70CFB8008049002E000200490FFE7D2
:109A000004989DF808100131B0FBF1F00590FFE7D4
:109A1000059806B080BD00BF80B586B000200490D8
:109A200041F24810C4F209000068039041F24C1062
:109A3000C4F20900006802900298FFF71DFC18B1FB
:109A4000FFE70020059023E00398019040B1FFE775
:109A50000198012808D0FFE70198022808D00CE0FF
:109A6000FFF7D4FA04900BE0FFF786FB049007E0C1
:109A70000120FFF793FB049002E000200490FFE731
:109A800004989DF808100131B0FBF1F00590FFE754
:109A9000059806B080BD00BF80B584B0002002905C
:109AA00041F2C400C4F20900006801900198FFF778
:109AB000E3FB18B1FFE7002003900AE0FFF75CFB2F
:109AC000029002989DF804100131B0FBF1F0039070
:109AD000FFE7039804B080BD83B001910090BDF80A
:109AE00004109DF8020040EA01400321C0F27F010A
:109AF00008404FF20C31C4F208010860BDF80000C4
:109B0000B0F5807F08D1FFE79DF807004FF21831CC
:109B1000C4F208010860FFE7BDF800104FF2003002
:109B2000C4F20800016000684001002803D5FFE787
:109B30000120029002E000200290FFE7029803B0AB
:109B4000704700BF83B001910090BDF804109DF8EC
:109B5000020040EA01400321C0F27F0108404FF2B9
:109B60000C21C4F208010860BDF80000B0F5807F48
:109B70000FD1FFE79DF8060000F03F004FF21821DB
:109B8000C4F2080108609DF8070000F03F0008607B
:109B9000FFE7BDF800104FF20020C4F2080001609A
:109BA00000684001002803D5FFE70120029002E091
:109BB00000200290FFE7029803B0704782B0019046
:109BC0004FF20011C4F2080108680090009820F4D8
:109BD00040300090019A009810430090009808606F
:109BE00002B0704780B582B0162000F02BF84FF21B
:109BF0000030C4F208000068C00768B9FFE746F605
:109C00000040C0F2DC20FEF7D9FF20B1FFE70020C2
:109C10008DF8070011E0FFE74FF20031C4F20801B0
:109C2000086840F0100008600120C0F2F800FEF75C
:109C300063FE01208DF80700FFE79DF8070002B0E2
:109C400080BD00BF84B00390BDF80E000290BDF847
:109C50000C000190029841F24401C4F20901084449
:109C600000900398013008B9FFE72DE041F2FC3184
:109C7000C4F20901086820F0010008600298FA287F
:109C800013D1FFE70199012000FA01F241F63811E2
:109C9000C4F2090108681043086041F24401C4F2AB
:109CA00009014FF08070086005E0019901208840AB
:109CB00000990860FFE741F2FC31C4F2090108682D
:109CC00040F001000860FFE704B070474EF6FC501A
:109CD000CEF20000006800F08070B0F1807F09D003
:109CE000FFE74EF6FC51CEF20001086840F08070AC
:109CF0000860FFE741F20000CEF20000006800F0CB
:109D00000070B0F1007F01D0FFE70AE04CF60B6075
:109D1000C0F200004CF65C61C0F200018222FEF746
:109D20005DFD41F20000CEF200000068C00748B9B6
:109D3000FFE741F20001CEF20001086840F00100A7
:109D40000860FFE7704700BF41F20400CEF2000058
:109D50000068704780B584B003900291039840B3C7
:109D6000FFE703980299A0FB010144F24022C0F2F0
:109D70000F02002302F0C6F801910090019808B983
:109D8000FFE70AE04CF64860C0F200004CF65C6168
:109D9000C0F20001D522FEF721FD0098019980084C
:109DA00040EA8170890801910090009800F004F861
:109DB000FFE704B080BD00BF81B00090009800466E
:109DC000401E0028FCD101B07047000080B584B06F
:109DD000039002910192019808B1FFE70AE04CF666
:109DE000C660C0F200004CF69461C0F20001772218
:109DF000FEF7F4FC0198007848B9FFE702990120CA
:109E000000FA01F20399486D904348650EE003980B
:109E10000299019A527800F00BF80299012000FA99
:109E200001F20399486D10434865FFE704B080BD17
:109E300083B0029001918DF803209DF8030030B9A2
:109E4000FFE70199012088400299886405E00199A3
:109E50000120884002994864FFE703B0704700BFC3
:109E600082B00190009101980068009908800198E3
:109E70000068000C0099887001980068000E009935
:109E8000C87002B0704700BF81B000900098D0F851
:109E9000200101B0704700BF82B00190009101988D
:109EA000009900EB8100D0F88000C0F3006002B0A0
:109EB000704700BF82B00190009100980199C1F8ED
:109EC000200102B0704700BF82B00190009101985C
:109ED000009900EB8101D1F8800040F08070C1F85A
:109EE000800002B07047000084B002900020019012
:109EF000FFE70198022813D8FFE701994CF65C5060
:109F0000C0F2000050F821000299884203D1FFE717
:109F10000198039017E0FFE7019801300190E8E70E
:109F20000198022801D8FFE70AE04CF6D560C0F29C
:109F300000004CF63E71C0F20001D722FEF74EFC45
:109F400001980390FFE7039804B0704786B005902E
:109F50000491049808B1FFE70AE04CF68470C0F25F
:109F600000004CF63E71C0F20001E522FEF736FC1F
:109F70000498C06902900498408CADF806000498DB
:109F8000008CADF80400BDF80600BDF8041088424E
:109F900009DDFFE7BDF8040002990844BDF806108A
:109FA000401A039006E0BDF80400BDF80610401A00
:109FB0000390FFE7039806B0704700BF80B58CB0F0
:109FC0000B900A9109920A9808B1FFE70BE04CF652
:109FD000C660C0F200004CF63E71C0F2000140F2D3
:109FE0006912FEF7FBFB0A98006808B1FFE70BE077
:109FF0004DF26800C0F200004CF63E71C0F2000164
:10A000004FF4B572FEF7EAFB0A98007A032801DCE8
:10A01000FFE70BE04CF6EF70C0F200004CF63E712B
:10A02000C0F200014FF4B672FEF7D8FB0A98407AEE
:10A03000032801DCFFE70BE04CF6A870C0F200003B
:10A040004CF63E71C0F2000140F26D12FEF7C6FB05
:10A05000002008900A99096802918DF81700ADF860
:10A060001A0004208DF81600FFE79DF8160020283E
:10A0700058D8FFE7099840000A9909689DF816200A
:10A0800001FB02F1B0FBF1F001304008ADF818001F
:10A09000BDF8180020B9FFE70120ADF818000CE06A
:10A0A000BDF81800B0F5005F05D3FFE741F6FF707B
:10A0B000ADF8180000E0FFE7FFE709989DF81610DB
:10A0C000BDF8182001FB02F1B0FBF1F003900398FA
:10A0D0000A990968884206D9FFE703980A9909682E
:10A0E000401A009005E00A9800680399401A009011
:10A0F000FFE7009804900498029988420BD8FFE784
:10A10000049802909DF816008DF81700BDF818000D
:10A11000ADF81A00FFE7FFE79DF8160001308DF853
:10A120001600A2E702980A99096848F21F52C5F280
:10A13000EB12A1FB0221490901EB4101884204D93C
:10A14000FFE740F22150089000E10B98FFF7CCFEAA
:10A15000019001994CF66850C0F2000050F82100BF
:10A1600000F0F8F80B98FFF7BFFE01464CF6785068
:10A17000C0F2000030F8110000F030F90B9800F048
:10A1800037F90B98006907909DF8170004280AD347
:10A19000FFE79DF81700072805D8FFE7079840F468
:10A1A00000300790FFE7079820F0F85007909DF8DF
:10A1B00017104FF07F4000EB016000F0F851079856
:10A1C00008430790079841F6FF7188430790079866
:10A1D000BDF81A106FF35F3108430B9908610B99B2
:10A1E000086920F0005008610B98806940F21771EF
:10A1F000884307900A9A1079917BD27B02F007027C
:10A2000040EA022001F0010140EA81010798084379
:10A2100007900A98407901280FD1FFE70A98007942
:10A2200028B1FFE7079820F40060079004E0079842
:10A2300040F400600790FFE709E00A98007928B130
:10A24000FFE7079840F010000790FFE7FFE7079847
:10A250000B9988610B98006920F4005007900798CB
:10A260000A99C97901F0010140EA41300B9908616E
:10A270000A99087A497A40EA01400B99C8620B9919
:10A28000886A40F0880088620B99886A40F44040F0
:10A2900088620020C4F21F000790079840F0004039
:10A2A0000790079840F4404007900A98027B407B53
:10A2B000202101EA421260F304120B99486A10430C
:10A2C00048620A98807AC00730B1FFE70B99486A64
:10A2D00040F008004862FFE70A98C07AC00730B132
:10A2E000FFE70B99486A40F001004862FFE70A98CF
:10A2F0008079C00728B1FFE7079840F00050079029
:10A3000004E0079820F000500790FFE7079A0B99A8
:10A310004869104348610B98806907900A98007C4F
:10A32000C00728B1FFE7079840F400200790FFE737
:10A330000A98407CC00728B1FFE7079840F48020C6
:10A340000790FFE707980B998861FFE708980CB022
:10A3500080BD00BF84B00390BDF80E000290BDF830
:10A360000C000190029841F24401C4F20901084432
:10A3700000900398013008B9FFE72DE041F2FC316D
:10A38000C4F20901086820F0010008600298FA2868
:10A3900013D1FFE70199012000FA01F241F63811CB
:10A3A000C4F2090108681043086041F24401C4F294
:10A3B00009014FF08070086005E001990120884094
:10A3C00000990860FFE741F2FC31C4F20901086816
:10A3D00040F001000860FFE704B0704780B582B02C
:10A3E000ADF80600BDF8060001F0A8FC02B080BD83
:10A3F00081B000900099886840F002008860009960
:10A40000886820F00200886001B0704780B584B091
:10A410000390FFE70398C06A10F4E06F01D0FFE7F4
:10A42000F8E7FFE7039840694002002801D4FFE7FE
:10A43000F8E70020C4F21F000290029840F00040AC
:10A440000290029840F440400290029A03994869B1
:10A45000104348610399002088610398FFF744FD89
:10A46000019001994CF66850C0F2000050F82100AC
:10A4700000F002F804B080BD84B00390BDF80E0077
:10A480000290BDF80C000190029841F24801C4F21C
:10A490000901084400900398013008B9FFE732E051
:10A4A00041F2FC31C4F20901086820F001000860A3
:10A4B0000298FA2818D1FFE70199012000FA01F269
:10A4C00041F63810C4F20900016891430160006848
:10A4D000000740B9FFE741F24801C4F209014FF01B
:10A4E00080700860FFE705E001990120884000992D
:10A4F0000860FFE741F2FC31C4F20901086840F04E
:10A5000001000860FFE704B0704700BF82B001900F
:10A51000019808B1FFE70BE04CF6C660C0F20000FE
:10A520004CF63E71C0F2000140F28D22FEF756F962
:10A53000019900200861C860886048600860019A3D
:10A540004FF4E13111600199087101994871019945
:10A5500088710199C871019908720199487201992D
:10A5600088720199C8720199487301990873019919
:10A5700088730199C873019908740199487402B0ED
:10A58000704700BF8CB00B900A9109920A9808B1ED
:10A59000FFE70BE04DF25600C0F200004CF63E71B2
:10A5A000C0F2000140F2BA22FEF718F9002008902C
:10A5B0000A9901918DF81300ADF8160004208DF86A
:10A5C0001200FFE79DF81200202854D8FFE70998F1
:10A5D00040000A999DF8122001FB02F1B0FBF1F056
:10A5E00001304008ADF81400BDF8140020B9FFE7B1
:10A5F0000120ADF814000CE0BDF81400B0F5005FC8
:10A6000005D3FFE741F6FF70ADF8140000E0FFE767
:10A61000FFE709989DF81210BDF8142001FB02F124
:10A62000B0FBF1F0029002980A99884205D9FFE741
:10A6300002980A99401A009004E00A980299401A78
:10A640000090FFE7009803900398019988420BD887
:10A65000FFE7039801909DF812008DF81300BDF8F4
:10A660001400ADF81600FFE7FFE79DF81200013077
:10A670008DF81200A6E701980A9948F21F52C5F218
:10A68000EB12A1FB0221490901EB410188423AD2B8
:10A69000FFE70B98806906900B99886920F44020A9
:10A6A00088610B98006907909DF8130004280AD36D
:10A6B000FFE79DF81300072805D8FFE7079840F447
:10A6C00000300790FFE7079820F0F85007909DF8BA
:10A6D00013104FF07F4000EB016000F0F851079835
:10A6E00008430790079841F6FF7188430790079841
:10A6F000BDF816106FF35F3108430B990861069897
:10A700000B99886103E040F221500890FFE7089818
:10A710000CB0704784B003908DF80B10039808B10B
:10A72000FFE70BE04CF6FA60C0F200004CF63E7119
:10A73000C0F2000140F21E32FEF750F800200190F6
:10A740009DF80B00C00768B1FFE70398806920F00F
:10A7500012000190019840F01000019001980399B7
:10A76000886105E00399886920F010008861FFE79F
:10A770000399886920F4006088610399086920F0D2
:10A780000050086104B0704784B003908DF80B103E
:10A79000039808B1FFE70BE04CF6FA60C0F2000046
:10A7A0004CF63E71C0F200014FF45072FEF716F8FD
:10A7B0000398C06940F2FF31884301909DF80B0077
:10A7C0000199084340F48070019001980399C86191
:10A7D00004B0704780B584B00390029102984CF2A7
:10A7E000C031C0F6F071084002900020009002983D
:10A7F00000F08001009840EA01200090029820F0CB
:10A8000080000290029800F04001009840EA012088
:10A810000090029820F04000029000F02BF8019088
:10A82000009A0399086910430861019800F02CF818
:10A8300000F020F801900398806A20F440300299DB
:10A8400001F44071084303998862019800F01CF8F4
:10A85000029820F44070029000F00CF80190029AE7
:10A860000399886910438861019800F00DF804B0DD
:10A8700080BD00BF82B0EFF310800190019800907E
:10A8800072B6009802B0704782B0009000980190B4
:10A89000019880F3108802B0704700BF80B584B083
:10A8A0000390029102984CF2C031C0F6F07108405A
:10A8B000029000200090029800F08001009840EA89
:10A8C00001200090029820F080000290029800F091
:10A8D0004001009840EA01200090029820F04000DA
:10A8E0000290FFF7C7FF0190009A0399086990430F
:10A8F00008610198FFF7C8FFFFF7BCFF01900398BC
:10A90000806A029A4FF6FF41CFF6FC7161EA0201BC
:10A91000084020F44030039988620198FFF7B4FFA3
:10A92000029820F440700290FFF7A4FF0190029A71
:10A9300003998869904388610198FFF7A5FF04B0E7
:10A9400080BD00BF82B00190019880694CF2C03197
:10A95000C0F6F07108400090009820F04000019986
:10A96000096901F4804140EA11200090009820F02C
:10A9700080000199096901F4004140EA112000902A
:10A9800000980199896A090A61F3092000900098EA
:10A9900002B0704782B00190019840690090019820
:10A9A000806A00F44301009840EA1140009000984A
:10A9B0004CF2C301CCF2FF1108400090009802B0A5
:10A9C000704700BF80B586B00590049104984CF2A2
:10A9D0000301CCF21F01084004909DF8100080078D
:10A9E00090B1FFE70598806A0390039820F47030D7
:10A9F0000390049800F00301039840EA014003909B
:10AA0000039805998862FFE70598406900F078503F
:10AA100004990843039003980599486104980190AC
:10AA20000598FFF7B7FF01460198084204D0FFE7F9
:10AA300040F21A50029002E000200290FFE70298D4
:10AA400006B080BD86B0059004910392049808B1C9
:10AA5000FFE70BE04CF63170C0F200004CF63E719F
:10AA6000C0F2000140F23D42FDF7B8FE04980290AA
:10AA700003980190FFE7019898B1FFE7FFE7059879
:10AA800040690002002801D4FFE7F8E70298007847
:10AA90000599C8610298013002900198013801902F
:10AAA000E9E7FFE7059840694002002801D4FFE785
:10AAB000F8E7002006B0704786B005900491039235
:10AAC000049808B1FFE70BE04CF63170C0F20000CB
:10AAD0004CF63E71C0F2000140F27942FDF77EFE75
:10AAE0000498029003980190FFE7019898B1FFE75E
:10AAF000FFE7059840690002002801D4FFE7F8E766
:10AB0000029800880599C861029802300290019865
:10AB100001380190E9E7FFE7059840694002002805
:10AB200001D4FFE7F8E7002006B0704780B58AB08F
:10AB3000099008910792089808B1FFE70BE04CF6DE
:10AB40003170C0F200004CF63E71C0F2000140F2DC
:10AB5000BA42FDF743FE0020069008980490099839
:10AB60008069039001209DF80D10090700290190CC
:10AB700011D4FFE700209DF80C10C90600290090B1
:10AB800006D4FFE79DF80C00C0F340000090FFE7FB
:10AB900000980190FFE7019800F001008DF80B008C
:10ABA000FFE70798411E0791002800F08080FFE72B
:10ABB000FFE70998C06A00F0E0610020B0EB116F78
:10ABC00058D1FFE70998FFF7E5FE05909DF81600BC
:10ABD000000700280ED5FFE709984FF40021FFF782
:10ABE000F1FE014640F21A50002908BF40F21D5004
:10ABF00006903FE09DF81600C00770B1FFE7099886
:10AC00004FF48031FFF7DEFE014640F21A50002972
:10AC100008BF4FF4A4600690FFE79DF81600800778
:10AC200000280ED5FFE709984FF40031FFF7CAFE60
:10AC3000014640F21A50002908BF40F21F5006900A
:10AC4000FFE79DF81600400700280ED5FFE709989A
:10AC50004FF48021FFF7B6FE014640F21A5000295A
:10AC600008BF40F21E500690FFE7069808B1FFE7C4
:10AC700000E09EE70698C0B9FFE79DF80B00C0070B
:10AC800050B1FFE70998C06900F07F00049908708F
:10AC900004980130049007E00998C069049908708D
:10ACA000049801300490FFE700E000E079E706989F
:10ACB0000AB080BD80B586B00590049103920498D7
:10ACC00008B1FFE70BE04CF63170C0F200004CF623
:10ACD0003E71C0F2000140F23D52FDF77FFD0020C1
:10ACE000029004980090FFE70398411E039100280A
:10ACF00071D0FFE7FFE70598C06A00F0E06100202F
:10AD0000B0EB116F58D1FFE70598FFF743FE0190B4
:10AD10009DF80600000700280ED5FFE705984FF4C0
:10AD20000021FFF74FFE014640F21A50002908BFEC
:10AD300040F21D5002903FE09DF80600C00770B140
:10AD4000FFE705984FF48031FFF73CFE014640F2E3
:10AD50001A50002908BF4FF4A4600290FFE79DF845
:10AD60000600800700280ED5FFE705984FF4003154
:10AD7000FFF728FE014640F21A50002908BF40F2B2
:10AD80001F500290FFE79DF80600400700280ED5EF
:10AD9000FFE705984FF48021FFF714FE014640F2CB
:10ADA0001A50002908BF40F21E500290FFE7029897
:10ADB00008B1FFE700E09EE7029850B9FFE7059869
:10ADC000C0696FF39F2000990880009802300090BE
:10ADD00000E000E088E7029806B080BD80B58AB048
:10ADE0000990089107920693089808B1FFE70BE0D5
:10ADF0004CF68470C0F200004CF63E71C0F20001C7
:10AE000040F2B352FDF7EAFC0998806904900120F2
:10AE10009DF8111009070029029011D4FFE70020C6
:10AE20009DF81010C9060029019006D4FFE79DF88F
:10AE30001000C0F340000190FFE701980290FFE787
:10AE4000029800F001008DF80F000898302101F001
:10AE500091F80899022081F82D000899002081F8C6
:10AE60002C000799089A51620699089A91629DF8F8
:10AE70000F10089A01F0010182F82E10089981F84C
:10AE80002F000998FFF730F805900898059A40F2CE
:10AE90006401C2F2000141F82200059A40F2040167
:10AEA000C2F200014AF6C560C0F2000041F822007B
:10AEB00005994CF67450C0F20000405600F084F83A
:10AEC0000AB080BD80B586B005900491049808B1A1
:10AED000FFE70BE04CF67270C0F200004CF63E71DA
:10AEE000C0F2000140F6A402FDF778FC0598FFF7D8
:10AEF00051FD03900598FFF725FD029004980190FD
:10AF00009DF80E000007002818D5FFE70598406956
:10AF10000021C3F6E071084000F500200599486162
:10AF20000198406A48B1FFE701990598D1F824C01B
:10AF30008B6A40F21D52E047FFE7FFE79DF80E00E5
:10AF4000C00600280BD5FFE79DF80A00C0060028C0
:10AF500005D5FFE70598019900F054FBFFE79DF840
:10AF60000E00800600280BD5FFE79DF80A0080063A
:10AF7000002805D5FFE70598019900F0E7FBFFE7FA
:10AF80009DF80E00000600280BD5FFE79DF80A008B
:10AF90000006002805D5FFE70598019900F0DEFCC2
:10AFA000FFE79DF80E00400600280BD5FFE79DF84F
:10AFB0000A004006002805D5FFE70598019900F032
:10AFC00047FDFFE706B080BD80B582B08DF8070071
:10AFD000002000909DF90700803018B9FFE701209C
:10AFE000009004E09DF9070000F08EFDFFE7009857
:10AFF00002B080BD80B586B00590049103920293A3
:10B00000049808B1FFE70BE04CF68470C0F2000032
:10B010004CF63E71C0F2000140F2F552FDF7DEFB46
:10B02000039808B1FFE70BE04DF23600C0F20000D4
:10B030004CF63E71C0F2000140F2F652FDF7CEFB35
:10B04000039804998861049890F82F00C00720B9EC
:10B05000FFE702980499C86104E002984008049947
:10B06000C861FFE704990020088404994884FFF729
:10B0700001FC01900599886940F00260886101989F
:10B08000FFF702FC06B080BD80B584B0039002914A
:10B09000029808B1FFE70BE04CF68470C0F20000A4
:10B0A0004CF63E71C0F2000140F21662FDF796FBCD
:10B0B000029890F82D0002280CD1FFE7FFF7DAFB89
:10B0C00001900399886920F0026088610198FFF778
:10B0D000DBFBFFE70299002088610299C8610299B1
:10B0E00008840299488404B080BD00BF80B586B052
:10B0F000059004910392049808B1FFE70BE04CF629
:10B100008470C0F200004CF63E71C0F2000140F2C3
:10B110003C62FDF763FB039808B1FFE70BE04DF2DB
:10B120004900C0F200004CF63E71C0F2000140F24E
:10B130003D62FDF753FB0398006808B1FFE70BE0A1
:10B140004CF61C70C0F200004CF63E71C0F20001DB
:10B1500040F23E62FDF742FB0398406808B1FFE70A
:10B160000BE04CF69370C0F200004CF63E71C0F25A
:10B17000000140F23F62FDF731FB049890F82C008B
:10B18000012804D1FFE740F21450029029E004980E
:10B1900090F82F00C00728B9FFE7039800680499CA
:10B1A000086004E00398006804990860FFE70398CA
:10B1B000406804994860039840680499886004993D
:10B1C000012081F82C00FFF755FB01900599886953
:10B1D00040F4000088610198FFF756FB00200290C0
:10B1E000FFE7029806B080BD80B584B0039002915D
:10B1F000029808B1FFE70BE04CF68470C0F2000043
:10B200004CF63E71C0F2000140F26E62FDF7E6FAC4
:10B21000FFF730FB01900399886920F440008861B2
:10B220000198FFF731FB029900204860029981F8EC
:10B230002C0004B080BD00BF86B00590049103923D
:10B24000049808B1FFE70BE04CF68470C0F20000F0
:10B250004CF63E71C0F2000140F28762FDF7BEFA83
:10B26000039808B1FFE70BE04DF28200C0F2000046
:10B270004CF63E71C0F200014FF4D162FDF7AEFA18
:10B2800000200290049840680190049890F82C00E7
:10B2900018B9FFE7062002900CE004988068019935
:10B2A000401A0599C96A01F4E061A0EB11200399E5
:10B2B0000860FFE7029806B0704700BF80B58CB009
:10B2C0000B900A91099208930A9808B1FFE70BE0E6
:10B2D0004CF68470C0F200004CF63E71C0F20001E2
:10B2E00040F2C462FDF77AFA099808B1FFE70BE073
:10B2F0004DF24900C0F200004CF63E71C0F2000170
:10B3000040F2C562FDF76AFA0998006808B1FFE7E4
:10B310000BE04CF60770C0F200004CF63E71C0F234
:10B32000000140F2C662FDF759FA0998406808B179
:10B33000FFE70BE04CF69370C0F200004CF63E7154
:10B34000C0F2000140F2C762FDF748FA0020049005
:10B350000A9890F82D00032804D1FFE740F2155019
:10B360000690E1E0099840680390002002900A9856
:10B370008069002800F0A380FFE7FFF77BFA0590C3
:10B380000B99886920F0026088610598FFF77CFAC4
:10B390000B980A99FEF7DAFD0490049800284DD026
:10B3A000FFE703980499884203D2FFE703980190CE
:10B3B00002E004980190FFE7019804900499039833
:10B3C000401A039000200790FFE7079804998842ED
:10B3D00033D2FFE70A9890F82F00C00748B9FFE77B
:10B3E0000A998869498C405C09990968029A8854CD
:10B3F0000AE00A998869498C30F8110009990968AE
:10B40000029A21F81200FFE70298013002900A9890
:10B41000408C01300A99C969884204D1FFE70A9932
:10B420000020488404E00A99488C01304884FFE7F2
:10B43000FFE7079801300790C7E7FFE7039808B3D5
:10B44000FFE70A9890F82F00C00738B9FFE709987E
:10B450000068029908440A99C86007E009980068E2
:10B46000029900EB41000A99C860FFE703980A9926
:10B470000861099840680A9948610A99032081F88F
:10B480002D00FFE7FFF7F6F905900B99886940F06A
:10B49000026088610598FFF7F7F9039870B9FFE734
:10B4A0000A98406A48B1FFE70A990B98D1F824C07E
:10B4B0008B6A40F21752E047FFE7FFE72AE00A985D
:10B4C00090F82F00C00738B9FFE709980068029983
:10B4D00008440A99C86007E009980068029900EBDF
:10B4E00041000A99C860FFE703980A990861039828
:10B4F0000A9948610A99032081F82D00FFF7BAF9EB
:10B5000005900B99886940F0036088610598FFF702
:10B51000BBF9FFE7089820B1FFE702980899086097
:10B52000FFE700200690FFE706980CB080BD00BF43
:10B5300080B584B003900291029808B1FFE70BE058
:10B540004CF68470C0F200004CF63E71C0F200016F
:10B5500040F26272FDF742F90298806960B9FFE734
:10B56000FFF788F901900399886920F003608861EA
:10B570000198FFF789F9FFE7029900200861029915
:10B58000022081F82D0004B080BD00BF86B0059078
:10B5900004910392049808B1FFE70BE04CF6847025
:10B5A000C0F200004CF63E71C0F2000140F2817220
:10B5B000FDF714F9039808B1FFE70BE04DF28200A4
:10B5C000C0F200004CF63E71C0F2000140F28272FF
:10B5D000FDF704F900200290049800690190049896
:10B5E00090F82D00022803D1FFE70620029006E024
:10B5F000049840690199401A03990860FFE702988E
:10B6000006B0704780B586B0059004910598C06A71
:10B61000C0F302608DF80B00FFE704980169002079
:10B62000019039B1FFE79DF80B00002818BF0120F9
:10B630000190FFE70198C00700285BD0FFE704985E
:10B6400000699DF80B10884204D2FFE70498006956
:10B65000009003E09DF80B000090FFE700988DF844
:10B660000A00049890F82F00C00778B9FFE7059802
:10B670000499C9689DF80A2000F05EFA0498C06831
:10B680009DF80A1008440499C8600FE005980499D1
:10B69000C9689DF80A2000F0A7FA0498C0689DF8D0
:10B6A0000A1000EB41000499C860FFE79DF80A20EA
:10B6B00004990869801A08619DF80A109DF80B002A
:10B6C000401A8DF80B000498006990B9FFE70499BF
:10B6D000022081F82D000498406A48B1FFE70499E0
:10B6E0000598D1F824C08B6A40F21752E047FFE773
:10B6F000FFE792E7059840690021C3F6E071084032
:10B7000000F58010059948610498006960B9FFE769
:10B71000FFF7B0F803900599886920F0036088610D
:10B720000398FFF7B1F80EE00498406A48B1FFE7CC
:10B7300004990598D1F824C08B6A40F22252E04760
:10B7400000E0FFE7FFE706B080BD00BF80B588B02E
:10B75000079006910798C06AC0F302608DF8170041
:10B76000FFE7069801690020029039B1FFE79DF8D4
:10B770001700002818BF01200290FFE70298C007B9
:10B7800000285BD0FFE7069800699DF817108842F3
:10B7900004D2FFE706980069019003E09DF81700C6
:10B7A0000190FFE701988DF81600069890F82F0099
:10B7B000C00778B9FFE707980699C9689DF8162071
:10B7C00000F0BAF90698C0689DF81610084406996A
:10B7D000C8600FE007980699C9689DF8162000F028
:10B7E00003FA0698C0689DF8161000EB4100069910
:10B7F000C860FFE79DF8162006990869801A08615D
:10B800009DF816109DF81700401A8DF8170006983D
:10B81000006990B9FFE70699022081F82D0006988B
:10B82000406A48B1FFE706990798D1F824C08B6AAF
:10B8300040F21752E047FFE7FFE792E7069880697A
:10B84000002876D0FFE7FFE79DF81700411E8DF82E
:10B85000171000286CD0FFE70798069900F0F0F960
:10B8600070B1FFE70698406A48B1FFE7069907986C
:10B87000D1F824C08B6A40F21C52E047FFE7FFE793
:10B880000798069900F0DCF990B1FFE70698408C24
:10B8900001300699C969884204D1FFE70699002062
:10B8A000488404E00699488C01304884FFE7FFE7AC
:10B8B0000698008CADF814000798C06904900698AB
:10B8C00090F82E00C00748B1FFE7049800F07F0011
:10B8D00006998969BDF81420885417E0069890F8F5
:10B8E0002F00C00738B9FFE7049806998969BDF8A9
:10B8F0001420885409E004986FF39F200699896901
:10B90000BDF8142021F81200FFE7FFE70698008C2D
:10B9100001300699C969884204D1FFE706990020E1
:10B92000088404E00699088C01300884FFE78BE75F
:10B9300011E00698006960B9FFE7FEF79BFF0390EE
:10B940000799886920F0036088610398FEF79CFFDF
:10B9500000E000E0FFE708B080BD00BF80B586B022
:10B96000059004910598C06A00F4E0610420A0EB02
:10B9700011208DF80F00FFE7049841680020019026
:10B9800039B1FFE79DF80F00002818BF0120019092
:10B99000FFE70198C007002858D0FFE704984068E7
:10B9A0009DF80F10884204D2FFE704984068009089
:10B9B00003E09DF80F000090FFE700988DF80E005F
:10B9C000049890F82F00C00778B9FFE7059804990C
:10B9D00009689DF80E2000F05FF9049800689DF852
:10B9E0000E100844049908600FE00598049909684E
:10B9F0009DF80E2000F078F9049800689DF80E106C
:10BA000000EB410004990860FFE79DF80E200499BF
:10BA10004868801A48609DF80E109DF80F00401A83
:10BA20008DF80F000498406878B9FFE7FEF722FF11
:10BA300002900598806940F4800020F40000059988
:10BA400088610298FEF720FFFFE795E706B080BD0A
:10BA500080B584B0039002910299002081F82C00F7
:10BA6000FEF708FF01900399886920F4800088613F
:10BA70000198FEF709FF0298406A48B1FFE7029972
:10BA80000398D1F824C08B6A40F21652E047FFE7D2
:10BA900004B080BD82B00190009102B0704700BF39
:10BAA00080B540F20400C2F20000026840F2640077
:10BAB000C2F2000001684FF20000C4F20900904792
:10BAC00080BD00BF80B540F20400C2F200004268B1
:10BAD00040F26400C2F2000041680020C4F20A0093
:10BAE000904780BD80B540F20400C2F20000826839
:10BAF00040F26400C2F20000816841F20000C4F22A
:10BB00000A00904780BD00BF81B08DF803009DF909
:10BB1000030000280ED4FFE79DF9031001F01F0277
:10BB2000012090404A094EF20011CEF2000141F886
:10BB30002200FFE701B0704788B007900691059298
:10BB4000069808B1FFE70BE04CF63170C0F2000038
:10BB50004CF63E71C0F200014FF49372FCF73EFECA
:10BB600007988069039001209DF80D1009070029AE
:10BB7000019011D4FFE700209DF80C10C9060029A0
:10BB8000009006D4FFE79DF80C00C0F34000009041
:10BB9000FFE700980190FFE7019800F001008DF8A1
:10BBA0000B0000200490FFE704980599884218D202
:10BBB000FFE79DF80B00C00740B1FFE70798C06999
:10BBC00000F07F000699049A885405E00798C06940
:10BBD0000699049A8854FFE7FFE70498013004901F
:10BBE000E2E708B0704700BF84B003900291019271
:10BBF000029808B1FFE70BE04CF63170C0F200008C
:10BC00004CF63E71C0F200014FF4A272FCF7E6FD63
:10BC100000200090FFE70098019988420DD2FFE7CD
:10BC20000398C0696FF39F200299009A21F81200CF
:10BC3000FFE7009801300090EDE704B0704700BFC7
:10BC400080B584B003900291029808B1FFE70AE042
:10BC50004CF68470C0F200004CF63E71C0F2000158
:10BC6000FA22FCF7BBFD02990398FEF76FF90299DF
:10BC7000C9690139884204D1FFE701208DF8070026
:10BC800003E000208DF80700FFE79DF8070000F0B3
:10BC9000010004B080BD00BF84B003900291019206
:10BCA000029808B1FFE70BE04CF63170C0F20000DB
:10BCB0004CF63E71C0F2000140F20B12FCF78EFD13
:10BCC00000200090FFE70098019988420AD2FFE720
:10BCD00002980099405C0399C861FFE70098013021
:10BCE0000090F0E704B0704784B003900291019295
:10BCF000029808B1FFE70BE04CF63170C0F200008B
:10BD00004CF63E71C0F200014FF48C72FCF766FDF8
:10BD100000200090FFE70098019988420BD2FFE7CE
:10BD20000298009930F811000399C861FFE7009864
:10BD300001300090EFE704B07047000086B0ADF826
:10BD400016009DF8170004909DF8160003900399C3
:10BD500001208840029041F20000C4F209000190E5
:10BD6000BDF816004FF6FF71884201D1FFE759E098
:10BD700003981F2801D8FFE70AE04DF2D100C0F276
:10BD800000004DF29001C0F200013522FCF726FDC3
:10BD90000498012801D8FFE70AE04DF2C300C0F281
:10BDA00000004DF29001C0F200013622FCF716FDB2
:10BDB00041F2FC31C4F20901086820F0010008607A
:10BDC000049860B9FFE7029841F20401C4F2090146
:10BDD000086041F20000C4F20900019011E00498EB
:10BDE00001280CD1FFE7029841F21401C4F20901C5
:10BDF000086041F21000C4F20900019000E0FFE782
:10BE0000FFE7FFE7019800680299084201D1FFE7C8
:10BE1000F8E741F2FC31C4F20901086840F0010082
:10BE20000860FFE706B0704786B0ADF816009DF8D1
:10BE3000170004909DF81600039003990120884094
:10BE4000029041F20000C4F20900019003981F28FB
:10BE500001D8FFE70AE04DF2D100C0F200004DF238
:10BE60009001C0F200016322FCF7B8FC41F2FC3102
:10BE7000C4F20901086820F001000860049860B964
:10BE8000FFE7029841F20801C4F20901086041F29B
:10BE90000000C4F20900019011E0049801280CD1BF
:10BEA000FFE7029841F21801C4F20901086041F26B
:10BEB0001000C4F20900019000E0FFE7FFE7FFE790
:10BEC000029801990968029A1140884201D1FFE75E
:10BED000F6E741F2FC31C4F20901086840F00100C4
:10BEE000086006B0704700BF80B582B0ADF80600AC
:10BEF000BDF80600FFF798FFBDF80600FFF71EFF2C
:10BF000002B080BD2DE9F05F0546002092469B46B9
:10BF100088460646814640241BE02846414647465F
:10BF2000224600F057F853465A46C01A914110D3A2
:10BF300011461846224600F03EF82D1A67EB01081C
:10BF40004F4622460120002100F035F817EB00098A
:10BF50004E41201EA4F10104DFDC484631462A464A
:10BF60004346BDE8F09FD2B201E000F8012B491E24
:10BF7000FBD270470022F6E710B513460A46044686
:10BF80001946FFF7F0FF204610BD30B50B460146BD
:10BF900000202022012409E021FA02F59D4205D368
:10BFA00003FA02F5491B04FA02F52844151EA2F112
:10BFB0000102F1DC30BD202A04DB203A00FA02F154
:10BFC000002070479140C2F1200320FA03F3194387
:10BFD00090407047202A04DB203A21FA02F0002129
:10BFE000704721FA02F3D040C2F120029140084389
:10BFF000194670472DE9FE4F804681EA0300C00FC5
:10C000000C46009021F0004123F00045B8EB0200FF
:10C01000A94105D24046214690461C460B460246A1
:10C0200023F00040104347D0270DC7F30A00C3F3A5
:10C030000A510290401A019040286BDAC3F31300B2
:10C0400040F4801B0098924620B10023D2EB030AF3
:10C0500063EB0B0B01985946C0F140025046FFF7C5
:10C06000AAFF06460D4650465946019A00F08CF943
:10C0700010EB08006141002487EA115284EAE7735B
:10C080001A4340D0009A62B3019A012A4FEA07523C
:10C0900015DC001B61EB02014FF0004202EA07527F
:10C0A000CDE90042001C41F5801132462B4600F0DC
:10C0B0008CF903B0BDE8F08F40462146F9E7001B3C
:10C0C00061EB0201001C41F5801300185B41201850
:10C0D000A2F5001747EB030140EAD570B6196D4190
:10C0E00011E06D084FEA360645EAC0754FEA07527F
:10C0F000001B61EB0201001C41F5801149084FEA69
:10C1000030000019514132462B4603B0BDE8F04FD4
:10C1100000F04CB90098012240000023D0EB02024D
:10C1200063EBE073009821464FEAE074B8EB00003F
:10C1300061EB0401E9E783F000435BE781F0004134
:10C1400058E72DE9FE4F81EA030404F0004421F092
:10C15000004100944FF0000B23F0004350EA01042B
:10C160005ED052EA03045BD0C3F30A54C1F30A550C
:10C170002C44A4F2F3340194A0FB0254C1F3130144
:10C1800041F48011C3F3130343F4801301FB024411
:10C1900000FB034E840A970A44EA815447EA835716
:10C1A000A4FB076802958D0A05FB07854FEA932CCF
:10C1B00004FB0C542705029D4FEA065847EA163740
:10C1C000B5EB08056EEB070C870E920E47EA811758
:10C1D00042EA8312A7FB0201B6EB0B0164EB0004F9
:10C1E0002B0D43EA0C335E1844EB1C50DA465146E3
:10C1F000E7FB0201C5F313044FEA0B3343EA145380
:10C200004FEA0432019C43EA0603A4F10C040294B1
:10C21000009CCDE900B400F0D8F803B0BDE8F08F81
:10C2200000200146F9E72DE9F04D81EA030404F00E
:10C23000004B21F0004514464FF0000A23F0004166
:10C2400050EA050220D054EA01021DD0C5F30A5776
:10C250000246C5F31303C1F31300C1F30A5640F4B9
:10C26000801543F48013A7EB0608101BD64608F28E
:10C27000FD3873EB050002D308F1010801E09218C4
:10C280005B41B8F1000F03DA00200146BDE8F08DF4
:10C2900000204FF48011064684460EE0171B73EB16
:10C2A000050705D3121B63EB050306434CEA010C9B
:10C2B00049084FEA300092185B4150EA0107EDD17E
:10C2C00052EA030012D082EA040083EA050108431F
:10C2D00005D0101BAB4106D20122002306E000224C
:10C2E0004FF0004302E06FF0010253101AEB06001A
:10C2F0004CEB085110EB0A0041EB0B01BDE8F04D8F
:10C3000000F054B8C1F30A52C1F3130140F2FF33F5
:10C3100041F480119A4202DA00200146704740F24F
:10C3200033439A42A2F2334202DC5242FFF752BE3A
:10C33000FFF741BE30B5041E71F1000404DB4FF07D
:10C340000044404264EB0101141E73F1000405DB5C
:10C350001C464FF00043524263EB0403994208BF6E
:10C36000904230BD064C074D06E0E06840F0010306
:10C3700094E8070098471034AC42F6D3FBF744FF2B
:10C38000E0D0000000D10000202A06DBCB17203AC5
:10C3900041FA02F043EAE07306E041FA02F3D040CA
:10C3A000C2F12002914008431946704710B5141E8F
:10C3B00073F1000408DA401C41F1000192185B415E
:10C3C0001A4301D120F0010010BD2DE9F04D924635
:10C3D0009B4611B1B1FA81F202E0B0FA80F220324C
:10C3E0009046FFF7E8FD04460F4640EA0A0041EA9E
:10C3F0000B0153465A46084313D0114653EA010035
:10C4000019D0C8F140025046FFF7E4FD05460E463C
:10C41000504659464246FFF7CEFD084305D001205D
:10C4200004E020463946BDE8F08D0020054346EA89
:10C43000E0762C4337430A986305E40AA0EB080032
:10C440000022FD0A44EA47540A3002D50020014682
:10C45000E9E7010510196941DDE90845001969415D
:10C46000BDE8F04DA2E700000FB4054B10B503A9DD
:10C47000044A029800F0DAF810BC5DF814FB0000E2
:10C48000E58700001000002002E008C8121F08C164
:10C49000002AFAD170477047002001E001C1121F45
:10C4A000002AFBD1704700002DE9FF5F82B0002118
:10C4B000DDE90430020DDDF840B0034318D044F646
:10C4C0001050A2F2FF3242431514119801281FD0D8
:10C4D000A5EB0B00401C5FEA000A4FF000064E4F30
:10C4E000DFF83891B046504615D5CAF1000413E084
:10C4F000119801244AA3012801D16FEA0B01029887
:10C50000119AC0E90031C0E9024206B0BDE8F09FCF
:10C51000CBF10000DFE704460021404A491842EB16
:10C520000450CDE9001012E0E00707D032463B4648
:10C5300040464946FFF705FE8046894632463B465F
:10C5400010461946FFF7FDFD06460F466410002C05
:10C55000EAD1DDE90401DDE90023BAF1000F06DAD2
:10C56000FFF7EFFD42464B46FFF7EBFD05E0FFF717
:10C570005AFE42464B46FFF756FE04460E46002240
:10C58000284BFFF7D7FE03D84FF0FF30014607E0F6
:10C590000022254B20463146FFF72CFDFFF7B2FE67
:10C5A000102409E0002C0ADB0A220023FFF7AAFC72
:10C5B000039B30321A55641E50EA0102F2D1641C0A
:10C5C000039AC4F111031444119A012A03D00122E1
:10C5D00008430DD10AE0084304D000204FF0110BAE
:10C5E000119072E7A3EB0B056D1E0DE05B4504DDBA
:10C5F0004FF0000205F1010504E003DA4FF00002FC
:10C60000A5F10105002AECD002981199C0E9023188
:10C61000C0E9004579E70000000014400000F03F49
:10C62000300000000000F0430000E03F2DE9FF4F24
:10C6300095B09B468946064600250FE2252877D10E
:10C6400000242746F84A0121059400E0044316F827
:10C65000013F203B01FA03F01042F7D130782A283D
:10C6600011D06FF02F033078A0F13002092A16D8CC
:10C67000059A44F0020402EB820203EB42021044EA
:10C68000761C0590EFE759F8042B0592002A03DA8F
:10C69000504244F40054059044F00204761C307873
:10C6A0002E2816D116F8010F44F004042A280DD0C4
:10C6B0006FF02F023078A0F13003092B09D807EB77
:10C6C000870302EB4303C718761CF3E759F8047B92
:10C6D000761C30786C280FD006DC4C2817D06828E0
:10C6E0000DD06A2814D104E0742810D07A280FD114
:10C6F0000DE044F400140AE044F4801401E044F432
:10C7000040147278824202D104F58014761C761CA3
:10C71000307866280BD013DC582877D009DC002845
:10C7200075D04528F6D04628F4D047281AD19DE187
:10C7300018E0632835D0642879D0652812D195E1B6
:10C74000702873D008DC6728F1D069286FD06E2874
:10C750000DD06F2806D1B5E073282CD0752875D080
:10C76000782874D05A46179990476D1C75E1C4F328
:10C770000250022809D003280DD0D9F8001004284F
:10C780000DD00D6009F1040967E1D9F80010EA172E
:10C79000C1E90052F6E7D9F800100D80F2E70D70FC
:10C7A000F0E719F8041B8DF8001000208DF8010047
:10C7B000EA46012003E059F804AB4FF0FF3061076F
:10C7C0004FF0000102D40DE008F101018846B942A2
:10C7D0000FDA8045F8DB1AF808100029F4D108E0D8
:10C7E00008F1010188468142FADB1AF80810002995
:10C7F000F6D105985B46A0EB080721463846179A04
:10C8000000F094FA284400EB080507E04DE029E128
:10C810000DE01AF8010B5A4617999047B8F1010834
:10C82000F7D25B4621463846179A13E142E00A22C6
:10C830000092C4F302524FF0000A022A08D059F8BD
:10C8400004CB032A4FEAEC710AD00DE029E02AE07C
:10C8500009F1070121F00702F2E802C1914609E05F
:10C860000FFA8CFC4FEAEC71042A03D14FFA8CFCCE
:10C870004FEAEC71002907DA0A460021DCF1000CCE
:10C8800061EB02012D2202E0220504D52B228DF856
:10C890000420012203E0E20701D02022F7E79046BE
:10C8A00059E00A2102E010220DE010214FF0000AA9
:10C8B00000910BE010224FF0000A44F00404082716
:10C8C000009203E008224FF0000A0092C4F30252E3
:10C8D000022A05D059F804CB0021032A08D009E028
:10C8E00009F1070121F00702F2E802C1914605E0D3
:10C8F0001FFA8CFC042A01D10CF0FF0C4FF0000849
:10C90000220728D5702806D0009B83F0100353EA35
:10C910000A0305D00EE040228DF80420012208E031
:10C920005CEA010206D030228DF804208DF8050063
:10C9300002229046009B83F0080353EA0A030AD1BF
:10C940005CEA010201D1620705D530228DF804208E
:10C950004FF001087F1E582804D034A003900EA881
:10C9600002900DE036A0F9E753466046009AFFF7C3
:10C97000C9FA84460398825C0298401E02900270B5
:10C980005CEA0100F0D1029806A9081A00F1200A19
:10C99000600702D524F4803400E00127574502DD0A
:10C9A000A7EB0A0000E0002000EB0A0100900598C8
:10C9B0004144401A0590E00306D45B462146179A8D
:10C9C000059800F0B3F90544002706E001A85A468F
:10C9D000C05D179990476D1C7F1C4745F6DBE0034F
:10C9E0000CD55B462146179A059800F09FF905443F
:10C9F00004E030205A46179990476D1C0099481E54
:10CA000000900029F5DC08E0029802995A46007867
:10CA1000491C0291179990476D1CBAF10001AAF1C7
:10CA2000010AF1DC65E100000928010030313233F0
:10CA3000343536373839616263646566000000005A
:10CA40003031323334353637383941424344454644
:10CA50000000000000F058F90544761C30780028EA
:10CA60007FF4ECAD19B02846BDE8F08F620700D422
:10CA7000062709F1070222F0070CFCE80223E14631
:10CA800003F000485FEA080C02D00FF2702C0DE0B2
:10CA90005FEA045C02D50FF2682C07E05FEAC47C11
:10CAA00002D00FF2602C01E0AFF2700C4FF0FF38B3
:10CAB00023F00043CDF850C065280CD006DC452893
:10CAC00009D046281DD047283DD13DE0662818D022
:10CAD00067287ED138E00021112F01DB112000E012
:10CAE000781CCDE9000106A90EA8FFF7DDFCDDE901
:10CAF0000F010E9A03910021009207F1010A04919F
:10CB00004DE04FF000400097CDE9011006A90EA8B6
:10CB1000FFF7CAFCDDE90F0203920E9B1199002278
:10CB2000DDF80CA00093049211B9791C00EB010A06
:10CB3000B7EB0A0004D4C0F1FF3007F1010A0490FA
:10CB4000AAEB0700019044E0012F00DA0127002141
:10CB5000112F01DD112000E03846CDE9000106A9C2
:10CB60000EA8FFF7A1FCDDE90F010E9A0391002149
:10CB700004910092BA4621070CD40399514500DA7A
:10CB80008A46BAF1010F05DD009AAAF10101515C54
:10CB9000302908D0B84202DA10F1040F06DA012178
:10CBA000CDE9011015E0AAF10101E9E7002805DC53
:10CBB000049901440491AAEB000102E0411C514593
:10CBC00000DD8A460499401A401C01904FF0004055
:10CBD0000290200704D40198504501DBCDF8048071
:10CBE00000208DF84F0002980DF14F07B0F1004F73
:10CBF00025D02B200E9002984FF0020800280CDA66
:10CC0000404202902D200E9007E00A210298FFF783
:10CC1000BCF93031029007F8011DB8F10001A8F10C
:10CC20000108F2DC02980028EFD1791E0E980870F6
:10CC3000307800F0200040F0450007F8020D12A8FF
:10CC4000C01B00F107081498007800B1012000EB28
:10CC50000A01019801EBE07105984144401A401E19
:10CC60000590E00306D45B462146179A059800F02C
:10CC70005DF805441498007818B15A461799904702
:10CC80006D1CE00324D55B462146179A059800F0F9
:10CC90004DF805441CE00498002807DBDDE903019A
:10CCA000884203DD0098405C179901E01799302015
:10CCB0005A469047049805F10105401C04900198DC
:10CCC000401E019004D12E205A46179990476D1CA2
:10CCD000BAF10001AAF1010ADDDC05E017F8010B49
:10CCE0005A46179990476D1CB8F10001A8F1010848
:10CCF000F4DC5B462146179A0598ABE62D00000050
:10CD00002B000000200000002DE9F0410446002522
:10CD10001E461746880404D405E039462020B04753
:10CD20006D1C641EF9D52846BDE8F0812DE9F0415F
:10CD3000044600251E469046C80301D5302700E072
:10CD40002027880404D505E041463846B0476D1CCD
:10CD5000641EF9D52846BDE8F081000000F00940C6
:10CD600000000A4000100A401300000014000000F8
:10CD7000150000001F202100130014001500492099
:10CD8000616D206170706C69636174696F6E2C20D5
:10CD90006D61696E20616464726573733A307825E1
:10CDA000580D0A002E2E2F2E2E2F2E2E2F2E2E2FE8
:10CDB0004C69627261726965732F6472697665721B
:10CDC000735F6D6378612F7372632F66736C5F633B
:10CDD0006C6F636B2E630073656C5F6E616D6520B5
:10CDE0003C3D206B434C4F434B5F53656C4D61782A
:10CDF000006469765F6E616D65203C3D206B434C3D
:10CE00004F434B5F4469764D6178004457545F430C
:10CE100054524C5F4E4F435943434E545F4D736BD6
:10CE200020213D20284457542D3E4354524C202667
:10CE3000204457545F4354524C5F4E4F4359434331
:10CE40004E545F4D736B2900636F756E74203C3DCB
:10CE50002055494E5433325F4D4158002E2E2F2E0F
:10CE60002E2F2E2E2F2E2E2F4C6962726172696525
:10CE7000732F647269766572735F6D6378612F7367
:10CE800072632F66736C5F636F6D6D6F6E5F61723F
:10CE90006D2E63002E2E2F2E2E2F2E2E2F2E2E2F68
:10CEA0004C69627261726965732F6472697665722A
:10CEB000735F6D6378612F7372632F66736C5F6746
:10CEC00070696F2E63004E554C4C20213D20636FDE
:10CED0006E66696700696E7374616E6365203C20DD
:10CEE00041525241595F53495A4528735F6C7075DE
:10CEF00061727442617365732900626173652021F8
:10CF00003D204E554C4C004E554C4C20213D207838
:10CF10006665722D3E727844617461004E554C4CCA
:10CF200020213D20786665722D3E747844617461DD
:10CF3000004E554C4C20213D2064617461002E2E22
:10CF40002F2E2E2F2E2E2F2E2E2F4C6962726172B5
:10CF50006965732F647269766572735F6D6378615A
:10CF60002F7372632F66736C5F6C70756172742EB1
:10CF700063004E554C4C20213D2069727148616E12
:10CF8000646C65004E554C4C20213D2068616E64F8
:10CF90006C6500305520213D20786665722D3E6419
:10CFA00061746153697A65002875696E74385F74BD
:10CFB0002946534C5F464541545552455F4C5055A8
:10CFC0004152545F4649464F5F53495A456E286265
:10CFD00061736529203E20636F6E6669672D3E721E
:10CFE000784669666F57617465726D61726B00286F
:10CFF00075696E74385F742946534C5F46454154D9
:10D000005552455F4C50554152545F4649464F5F1B
:10D0100053495A456E286261736529203E20636F2B
:10D020006E6669672D3E74784669666F57617465F0
:10D03000726D61726B004E554C4C20213D2072691F
:10D040006E67427566666572004E554C4C20213DF8
:10D050002078666572003055203C2062617564520C
:10D060006174655F427073003055203C20636F6EC1
:10D070006669672D3E62617564526174655F4270D6
:10D0800073004E554C4C20213D20636F756E74002B
:10D090002E2E2F2E2E2F2E2E2F2E2E2F4C696272DB
:10D0A00061726965732F647269766572735F6D630F
:10D0B00078612F7372632F66736C5F72657365742A
:10D0C0002E6300726567496E646578203C20327576
:10D0D00000626974506F73203C2033327500000089
:10D0E00000D10000000000201000000088C40000F3
:10D0F00010D10000100000206000000098C4000063
:10D100000024F4007183000071830000718300002B
:040000050000820174
:00000001FF
